{
    "contractName": "TOLLTransferProxy",
    "abi": [
        {
            "inputs": [],
            "payable": false,
            "stateMutability": "nonpayable",
            "type": "constructor"
        },
        {
            "constant": true,
            "inputs": [],
            "name": "TOLL_ADDRESS",
            "outputs": [
                {
                    "internalType": "address",
                    "name": "",
                    "type": "address"
                }
            ],
            "payable": false,
            "stateMutability": "view",
            "type": "function"
        },
        {
            "constant": true,
            "inputs": [
                {
                    "internalType": "address",
                    "name": "",
                    "type": "address"
                }
            ],
            "name": "approvals",
            "outputs": [
                {
                    "internalType": "uint256",
                    "name": "",
                    "type": "uint256"
                }
            ],
            "payable": false,
            "stateMutability": "view",
            "type": "function"
        },
        {
            "constant": false,
            "inputs": [
                {
                    "internalType": "address",
                    "name": "to",
                    "type": "address"
                },
                {
                    "internalType": "uint256",
                    "name": "tokens",
                    "type": "uint256"
                },
                {
                    "internalType": "address",
                    "name": "token",
                    "type": "address"
                }
            ],
            "name": "transferTokens",
            "outputs": [],
            "payable": false,
            "stateMutability": "nonpayable",
            "type": "function"
        }
    ],
    "bytecode": "6080604052600080546001600160a01b03191673420c6c82f5b8184bee86d457fc3d6a9db6355e341790556103966001556138f960025561b3b060035534801561004857600080fd5b50600054600580546001600160a01b0319166001600160a01b039092169190911790556107208061007a6000396000f3fe608060405234801561001057600080fd5b50600436106100415760003560e01c80631ae7f709146100465780634af350eb1461006a5780635d0341ba146100a2575b600080fd5b61004e6100da565b604080516001600160a01b039092168252519081900360200190f35b6100a06004803603606081101561008057600080fd5b506001600160a01b038135811691602081013591604090910135166100e9565b005b6100c8600480360360208110156100b857600080fd5b50356001600160a01b03166103e2565b60408051918252519081900360200190f35b6000546001600160a01b031681565b60006100fe6001545a9063ffffffff6103f416565b9050600061010c8333610457565b9050670de0b6b3a7640000821115610164576040805162461bcd60e51b81526020600482015260166024820152751026b0bc103932b33ab7321034b990189022ba3432b960511b604482015290519081900360640190fd5b600554604080516370a0823160e01b81523360048201529051670de0b6b3a7640000926001600160a01b0316916370a08231916024808301926020929190829003018186803b1580156101b657600080fd5b505afa1580156101ca573d6000803e3d6000fd5b505050506040513d60208110156101e057600080fd5b50511015610229576040805162461bcd60e51b81526020600482015260116024820152702637bb902a27a626102130b630b731b29760791b604482015290519081900360640190fd5b604080516323b872dd60e01b81523360048201526001600160a01b038781166024830152604482018790529151918516916323b872dd916064808201926020929091908290030181600087803b15801561028257600080fd5b505af1158015610296573d6000803e3d6000fd5b505050506040513d60208110156102ac57600080fd5b50516102ff576040805162461bcd60e51b815260206004820152601760248201527f5472616e73666572206661696c6564206661696c65642e000000000000000000604482015290519081900360640190fd5b61030983336104f9565b506005546001600160a01b03166340c10f19336103606103535a6002546103479061033a908963ffffffff6103f416565b899063ffffffff6103f416565b9063ffffffff61059816565b3a9063ffffffff6105da16565b6040518363ffffffff1660e01b815260040180836001600160a01b03166001600160a01b0316815260200182815260200192505050602060405180830381600087803b1580156103af57600080fd5b505af11580156103c3573d6000803e3d6000fd5b505050506040513d60208110156103d957600080fd5b50505050505050565b60046020526000908152604090205481565b60008282018381101561044e576040805162461bcd60e51b815260206004820152601b60248201527f536166654d6174683a206164646974696f6e206f766572666c6f770000000000604482015290519081900360640190fd5b90505b92915050565b6001600160a01b038082166000818152600460208181526040808420548151636eb1769f60e11b81529384019590955230602484015251929487169263dd62ed3e926044808201939291829003018186803b1580156104b557600080fd5b505afa1580156104c9573d6000803e3d6000fd5b505050506040513d60208110156104df57600080fd5b505111156104f05750600354610451565b50600092915050565b60408051636eb1769f60e11b81526001600160a01b038381166004830152306024830152915160009285169163dd62ed3e916044808301926020929190829003018186803b15801561054a57600080fd5b505afa15801561055e573d6000803e3d6000fd5b505050506040513d602081101561057457600080fd5b50516001600160a01b03909216600090815260046020526040902091909155919050565b600061044e83836040518060400160405280601e81526020017f536166654d6174683a207375627472616374696f6e206f766572666c6f770000815250610633565b6000826105e957506000610451565b828202828482816105f657fe5b041461044e5760405162461bcd60e51b81526004018080602001828103825260218152602001806106cb6021913960400191505060405180910390fd5b600081848411156106c25760405162461bcd60e51b81526004018080602001828103825283818151815260200191508051906020019080838360005b8381101561068757818101518382015260200161066f565b50505050905090810190601f1680156106b45780820380516001836020036101000a031916815260200191505b509250505060405180910390fd5b50505090039056fe536166654d6174683a206d756c7469706c69636174696f6e206f766572666c6f77a265627a7a723158202dcc35b0eaa8a63893bc619de5b0bc3b78aa4e716f74e7cf4a20a30ecd253b2664736f6c63430005110032",
    "sourcePath": "/sites/contracts/tollfree/src/TokenTransferProxy.sol",
    "compiler": {
        "name": "solc",
        "version": "0.5.17+commit.d19bba13"
    },
    "functionHashes": {
        "TOLL_ADDRESS()": "1ae7f709",
        "approvals(address)": "5d0341ba",
        "transferTokens(address,uint256,address)": "4af350eb"
    },
    "gasEstimates": {
        "creation": {
            "codeDepositCost": "364800",
            "executionCost": "102922",
            "totalCost": "467722"
        },
        "external": {
            "TOLL_ADDRESS()": "1015",
            "approvals(address)": "1146",
            "transferTokens(address,uint256,address)": "infinite"
        },
        "internal": {
            "getApprovalFees(address,address)": "infinite",
            "setApproval(address,address)": "infinite"
        }
    }
}