{
    "contractName": "TollCrowdSale",
    "abi": [
        {
            "inputs": [
                {
                    "internalType": "uint256",
                    "name": "openingTime",
                    "type": "uint256"
                },
                {
                    "internalType": "uint256",
                    "name": "closingTime",
                    "type": "uint256"
                },
                {
                    "internalType": "address payable",
                    "name": "wallet",
                    "type": "address"
                },
                {
                    "internalType": "contract ERC20Mintable",
                    "name": "_token",
                    "type": "address"
                }
            ],
            "payable": false,
            "stateMutability": "nonpayable",
            "type": "constructor"
        },
        {
            "anonymous": false,
            "inputs": [],
            "name": "CrowdsaleFinalized",
            "type": "event"
        },
        {
            "anonymous": false,
            "inputs": [
                {
                    "indexed": false,
                    "internalType": "uint256",
                    "name": "prevClosingTime",
                    "type": "uint256"
                },
                {
                    "indexed": false,
                    "internalType": "uint256",
                    "name": "newClosingTime",
                    "type": "uint256"
                }
            ],
            "name": "TimedCrowdsaleExtended",
            "type": "event"
        },
        {
            "anonymous": false,
            "inputs": [
                {
                    "indexed": true,
                    "internalType": "address",
                    "name": "purchaser",
                    "type": "address"
                },
                {
                    "indexed": true,
                    "internalType": "address",
                    "name": "beneficiary",
                    "type": "address"
                },
                {
                    "indexed": false,
                    "internalType": "uint256",
                    "name": "value",
                    "type": "uint256"
                },
                {
                    "indexed": false,
                    "internalType": "uint256",
                    "name": "amount",
                    "type": "uint256"
                }
            ],
            "name": "TokensPurchased",
            "type": "event"
        },
        {
            "payable": true,
            "stateMutability": "payable",
            "type": "fallback"
        },
        {
            "constant": true,
            "inputs": [],
            "name": "adminTeam",
            "outputs": [
                {
                    "internalType": "address payable",
                    "name": "",
                    "type": "address"
                }
            ],
            "payable": false,
            "stateMutability": "view",
            "type": "function"
        },
        {
            "constant": false,
            "inputs": [
                {
                    "internalType": "address",
                    "name": "beneficiary",
                    "type": "address"
                }
            ],
            "name": "buyTokens",
            "outputs": [],
            "payable": true,
            "stateMutability": "payable",
            "type": "function"
        },
        {
            "constant": false,
            "inputs": [
                {
                    "internalType": "uint256",
                    "name": "amount",
                    "type": "uint256"
                },
                {
                    "internalType": "uint256",
                    "name": "nonce",
                    "type": "uint256"
                },
                {
                    "internalType": "bytes",
                    "name": "sig",
                    "type": "bytes"
                },
                {
                    "internalType": "address",
                    "name": "claimer",
                    "type": "address"
                }
            ],
            "name": "claim",
            "outputs": [],
            "payable": false,
            "stateMutability": "nonpayable",
            "type": "function"
        },
        {
            "constant": true,
            "inputs": [
                {
                    "internalType": "address",
                    "name": "",
                    "type": "address"
                }
            ],
            "name": "claims",
            "outputs": [
                {
                    "internalType": "uint256",
                    "name": "",
                    "type": "uint256"
                }
            ],
            "payable": false,
            "stateMutability": "view",
            "type": "function"
        },
        {
            "constant": true,
            "inputs": [],
            "name": "closingTime",
            "outputs": [
                {
                    "internalType": "uint256",
                    "name": "",
                    "type": "uint256"
                }
            ],
            "payable": false,
            "stateMutability": "view",
            "type": "function"
        },
        {
            "constant": true,
            "inputs": [],
            "name": "devTeam",
            "outputs": [
                {
                    "internalType": "address payable",
                    "name": "",
                    "type": "address"
                }
            ],
            "payable": false,
            "stateMutability": "view",
            "type": "function"
        },
        {
            "constant": true,
            "inputs": [],
            "name": "exchangeAddress",
            "outputs": [
                {
                    "internalType": "address",
                    "name": "",
                    "type": "address"
                }
            ],
            "payable": false,
            "stateMutability": "view",
            "type": "function"
        },
        {
            "constant": false,
            "inputs": [],
            "name": "finalize",
            "outputs": [],
            "payable": false,
            "stateMutability": "nonpayable",
            "type": "function"
        },
        {
            "constant": true,
            "inputs": [],
            "name": "finalized",
            "outputs": [
                {
                    "internalType": "bool",
                    "name": "",
                    "type": "bool"
                }
            ],
            "payable": false,
            "stateMutability": "view",
            "type": "function"
        },
        {
            "constant": true,
            "inputs": [],
            "name": "hasClosed",
            "outputs": [
                {
                    "internalType": "bool",
                    "name": "",
                    "type": "bool"
                }
            ],
            "payable": false,
            "stateMutability": "view",
            "type": "function"
        },
        {
            "constant": true,
            "inputs": [],
            "name": "isOpen",
            "outputs": [
                {
                    "internalType": "bool",
                    "name": "",
                    "type": "bool"
                }
            ],
            "payable": false,
            "stateMutability": "view",
            "type": "function"
        },
        {
            "constant": true,
            "inputs": [],
            "name": "liquidityLocked",
            "outputs": [
                {
                    "internalType": "bool",
                    "name": "",
                    "type": "bool"
                }
            ],
            "payable": false,
            "stateMutability": "view",
            "type": "function"
        },
        {
            "constant": true,
            "inputs": [],
            "name": "marketingTeam",
            "outputs": [
                {
                    "internalType": "address",
                    "name": "",
                    "type": "address"
                }
            ],
            "payable": false,
            "stateMutability": "view",
            "type": "function"
        },
        {
            "constant": true,
            "inputs": [],
            "name": "openingTime",
            "outputs": [
                {
                    "internalType": "uint256",
                    "name": "",
                    "type": "uint256"
                }
            ],
            "payable": false,
            "stateMutability": "view",
            "type": "function"
        },
        {
            "constant": true,
            "inputs": [],
            "name": "oracle",
            "outputs": [
                {
                    "internalType": "address",
                    "name": "",
                    "type": "address"
                }
            ],
            "payable": false,
            "stateMutability": "view",
            "type": "function"
        },
        {
            "constant": true,
            "inputs": [],
            "name": "rate",
            "outputs": [
                {
                    "internalType": "uint256",
                    "name": "",
                    "type": "uint256"
                }
            ],
            "payable": false,
            "stateMutability": "view",
            "type": "function"
        },
        {
            "constant": false,
            "inputs": [],
            "name": "releaseTeamShare",
            "outputs": [],
            "payable": false,
            "stateMutability": "nonpayable",
            "type": "function"
        },
        {
            "constant": true,
            "inputs": [],
            "name": "salesTeam",
            "outputs": [
                {
                    "internalType": "address",
                    "name": "",
                    "type": "address"
                }
            ],
            "payable": false,
            "stateMutability": "view",
            "type": "function"
        },
        {
            "constant": true,
            "inputs": [
                {
                    "internalType": "address",
                    "name": "",
                    "type": "address"
                }
            ],
            "name": "teamFunds",
            "outputs": [
                {
                    "internalType": "uint256",
                    "name": "",
                    "type": "uint256"
                }
            ],
            "payable": false,
            "stateMutability": "view",
            "type": "function"
        },
        {
            "constant": false,
            "inputs": [],
            "name": "teamWithdraw",
            "outputs": [],
            "payable": false,
            "stateMutability": "nonpayable",
            "type": "function"
        },
        {
            "constant": true,
            "inputs": [],
            "name": "teamWithdrawn",
            "outputs": [
                {
                    "internalType": "bool",
                    "name": "",
                    "type": "bool"
                }
            ],
            "payable": false,
            "stateMutability": "view",
            "type": "function"
        },
        {
            "constant": true,
            "inputs": [],
            "name": "timelock",
            "outputs": [
                {
                    "internalType": "uint256",
                    "name": "",
                    "type": "uint256"
                }
            ],
            "payable": false,
            "stateMutability": "view",
            "type": "function"
        },
        {
            "constant": true,
            "inputs": [],
            "name": "token",
            "outputs": [
                {
                    "internalType": "contract IERC20",
                    "name": "",
                    "type": "address"
                }
            ],
            "payable": false,
            "stateMutability": "view",
            "type": "function"
        },
        {
            "constant": true,
            "inputs": [],
            "name": "totalClaims",
            "outputs": [
                {
                    "internalType": "uint256",
                    "name": "",
                    "type": "uint256"
                }
            ],
            "payable": false,
            "stateMutability": "view",
            "type": "function"
        },
        {
            "constant": true,
            "inputs": [],
            "name": "totalPresale",
            "outputs": [
                {
                    "internalType": "uint256",
                    "name": "",
                    "type": "uint256"
                }
            ],
            "payable": false,
            "stateMutability": "view",
            "type": "function"
        },
        {
            "constant": true,
            "inputs": [],
            "name": "totalTeamFundsWithdrawn",
            "outputs": [
                {
                    "internalType": "uint256",
                    "name": "",
                    "type": "uint256"
                }
            ],
            "payable": false,
            "stateMutability": "view",
            "type": "function"
        },
        {
            "constant": true,
            "inputs": [
                {
                    "internalType": "uint256",
                    "name": "",
                    "type": "uint256"
                }
            ],
            "name": "usedNonces",
            "outputs": [
                {
                    "internalType": "bool",
                    "name": "",
                    "type": "bool"
                }
            ],
            "payable": false,
            "stateMutability": "view",
            "type": "function"
        },
        {
            "constant": true,
            "inputs": [],
            "name": "wallet",
            "outputs": [
                {
                    "internalType": "address payable",
                    "name": "",
                    "type": "address"
                }
            ],
            "payable": false,
            "stateMutability": "view",
            "type": "function"
        },
        {
            "constant": true,
            "inputs": [],
            "name": "weiRaised",
            "outputs": [
                {
                    "internalType": "uint256",
                    "name": "",
                    "type": "uint256"
                }
            ],
            "payable": false,
            "stateMutability": "view",
            "type": "function"
        }
    ],
    "bytecode": "6080604052600b80546001600160a01b0319908116737f0374480b9ca09144f6cbd16774fdf1da1ae52817909155600c8054821673ace0c45a761bb92150092b88abf1a7c9fc2b118d179055600d805482167331749b1213c4191ff24951ac3866007611695142179055600e80548216735e93f2c38050794cde01de459b2947632f271e1c179055601180548216737a250d5630b4cf539739df2c5dacb4c659f2488d908117909155601280549092161790556017805461ffff19169055348015620000ca57600080fd5b50604051620023703803806200237083398181016040526080811015620000f057600080fd5b508051602082015160408301516060909301516000805460ff19166001908117909155929391928490849084846001600160a01b038216620001645760405162461bcd60e51b81526004018080602001828103825260258152602001806200234b6025913960400191505060405180910390fd5b6001600160a01b038116620001ab5760405162461bcd60e51b8152600401808060200182810382526024815260200180620023276024913960400191505060405180910390fd5b600292909255600180546001600160a01b039283166001600160a01b0319909116179055600080549190921661010002610100600160a81b0319909116179055428210156200022c5760405162461bcd60e51b8152600401808060200182810382526033815260200180620022bd6033913960400191505060405180910390fd5b8181116200026c5760405162461bcd60e51b8152600401808060200182810382526037815260200180620022f06037913960400191505060405180910390fd5b6004919091556005556006805460ff19169055600f80546001600160a01b039283166001600160a01b031991821617909155601154601080549092169216919091179055505050611ffa80620002c36000396000f3fe6080604052600436106101c25760003560e01c8063777ed97d116100f7578063c816488e11610095578063ec8ac4d811610064578063ec8ac4d81461050b578063fc0c546a14610531578063fc70f0a314610546578063fde06b2e14610579576101c2565b8063c816488e146104b7578063cfbb7d36146104cc578063d33219b4146104e1578063d3dcc175146104f6576101c2565b80639cd01605116100d15780639cd0160514610445578063b3f05b971461045a578063b7a8807c1461046f578063c6788bdd14610484576101c2565b8063777ed97d146104065780637dc0d1d01461041b5780638cbe363e14610430576101c2565b80634b6753bc1161016457806357976fb41161013e57806357976fb41461039d5780636717e41c146103b25780636856a5d9146103dc5780636bd3d406146103f1576101c2565b80634b6753bc1461035e5780634bb278f314610373578063521eb27314610388576101c2565b80632c4e722e116101a05780632c4e722e146102f85780634042b66f1461031f57806341c613831461033457806347535d7b14610349576101c2565b806309066d7c146101d45780631515bc2b1461029e5780631eb2b29d146102c7575b6101d26101cd61058e565b610592565b005b3480156101e057600080fd5b506101d2600480360360808110156101f757600080fd5b81359160208101359181019060608101604082013564010000000081111561021e57600080fd5b82018360208201111561023057600080fd5b8035906020019184600183028401116401000000008311171561025257600080fd5b91908080601f016020809104026020016040519081016040528093929190818152602001838380828437600092019190915250929550505090356001600160a01b031691506106b49050565b3480156102aa57600080fd5b506102b3610a12565b604080519115158252519081900360200190f35b3480156102d357600080fd5b506102dc610a1a565b604080516001600160a01b039092168252519081900360200190f35b34801561030457600080fd5b5061030d610a29565b60408051918252519081900360200190f35b34801561032b57600080fd5b5061030d610a2f565b34801561034057600080fd5b5061030d610a35565b34801561035557600080fd5b506102b3610a3b565b34801561036a57600080fd5b5061030d610a56565b34801561037f57600080fd5b506101d2610a5c565b34801561039457600080fd5b506102dc610b37565b3480156103a957600080fd5b506102b3610b46565b3480156103be57600080fd5b506102b3600480360360208110156103d557600080fd5b5035610b4f565b3480156103e857600080fd5b5061030d610b64565b3480156103fd57600080fd5b5061030d610b6a565b34801561041257600080fd5b506102dc610b70565b34801561042757600080fd5b506102dc610b7f565b34801561043c57600080fd5b506101d2610b8e565b34801561045157600080fd5b506102dc610fa9565b34801561046657600080fd5b506102b3610fb8565b34801561047b57600080fd5b5061030d610fc1565b34801561049057600080fd5b5061030d600480360360208110156104a757600080fd5b50356001600160a01b0316610fc7565b3480156104c357600080fd5b506102b3610fd9565b3480156104d857600080fd5b506101d2610fe7565b3480156104ed57600080fd5b5061030d6113c7565b34801561050257600080fd5b506102dc6113cd565b6101d26004803603602081101561052157600080fd5b50356001600160a01b0316610592565b34801561053d57600080fd5b506102dc6113dc565b34801561055257600080fd5b5061030d6004803603602081101561056957600080fd5b50356001600160a01b03166113f0565b34801561058557600080fd5b506102dc611402565b3390565b60005460ff166105e9576040805162461bcd60e51b815260206004820152601f60248201527f5265656e7472616e637947756172643a207265656e7472616e742063616c6c00604482015290519081900360640190fd5b6000805460ff19169055346105fe8282611411565b600061060982611474565b60035490915061061f908363ffffffff61149116565b60035561062c83826114f2565b826001600160a01b031661063e61058e565b6001600160a01b03167f6faf93231a456e552dbc9961f58d9713ee4f2e69d15f1975b050ef0911053a7b8484604051808381526020018281526020019250505060405180910390a361069083836113c3565b6106986114fc565b6106a283836113c3565b50506000805460ff1916600117905550565b6106cf621a5e006106c3610a56565b9063ffffffff61149116565b4210610717576040805162461bcd60e51b81526020600482015260126024820152711199595cc8149958db185a5b48115b99195960721b604482015290519081900360640190fd5b60008381526014602052604090205460ff1615610768576040805162461bcd60e51b815260206004820152600a60248201526955736564204e6f6e636560b01b604482015290519081900360640190fd5b6001600160a01b038116600090815260156020526040902054156107c5576040805162461bcd60e51b815260206004820152600f60248201526e105b1c9958591e4810db185a5b5959608a1b604482015290519081900360640190fd5b600f54604080516370a0823160e01b81526001600160a01b0384811660048301529151879392909216916370a0823191602480820192602092909190829003018186803b15801561081557600080fd5b505afa158015610829573d6000803e3d6000fd5b505050506040513d602081101561083f57600080fd5b5051101561087e5760405162461bcd60e51b8152600401808060200182810382526022815260200180611fa46022913960400191505060405180910390fd5b60408051606083811b6bffffffffffffffffffffffff191660208084019190915260348301889052605483018790523090911b607483015282518083036068018152608890920190925280519101206000906108d990611514565b905060006108e78285611565565b6012549091506001600160a01b03808316911614610940576040805162461bcd60e51b8152602060048201526011602482015270496e76616c6964207369676e617475726560781b604482015290519081900360640190fd5b6000858152601460209081526040808320805460ff191660011790556001600160a01b038616835260159091529020869055600854610985908763ffffffff61149116565b600855600f54604080516340c10f1960e01b81526001600160a01b038681166004830152602482018a9052915191909216916340c10f199160448083019260209291908290030181600087803b1580156109de57600080fd5b505af11580156109f2573d6000803e3d6000fd5b505050506040513d6020811015610a0857600080fd5b5050505050505050565b600554421190565b600e546001600160a01b031681565b60025490565b60035490565b60085481565b60006004544210158015610a5157506005544211155b905090565b60055490565b60065460ff1615610a9e5760405162461bcd60e51b8152600401808060200182810382526027815260200180611f536027913960400191505060405180910390fd5b610aa6610a12565b610af7576040805162461bcd60e51b815260206004820181905260248201527f46696e616c697a61626c6543726f776473616c653a206e6f7420636c6f736564604482015290519081900360640190fd5b6006805460ff19166001179055610b0c6115e8565b6040517f9270cc390c096600a1c17c44345a1ba689fafd99d97487b10cfccf86cf73183690600090a1565b6001546001600160a01b031690565b60175460ff1681565b60146020526000908152604090205460ff1681565b600a5481565b60075481565b600d546001600160a01b031681565b6012546001600160a01b031681565b600954610ba49062278d0063ffffffff61149116565b4211610bed576040805162461bcd60e51b815260206004820152601360248201527254696d65204c6f636b2069732041637469766560681b604482015290519081900360640190fd5b60175460ff16610c33576040805162461bcd60e51b815260206004820152600c60248201526b4e6f204c697175696469747960a01b604482015290519081900360640190fd5b62019a28600a5410610c83576040805162461bcd60e51b81526020600482015260146024820152731519585b48119d5b991cc8115e1a185d5cdd195960621b604482015290519081900360640190fd5b42600955601054604080516315ab88c960e31b815290516000926001600160a01b03169163ad5c4648916004808301926020929190829003018186803b158015610ccc57600080fd5b505afa158015610ce0573d6000803e3d6000fd5b505050506040513d6020811015610cf657600080fd5b5051601354604080516370a0823160e01b81526001600160a01b039283166004820152905191909216916370a08231916024808301926020929190829003018186803b158015610d4557600080fd5b505afa158015610d59573d6000803e3d6000fd5b505050506040513d6020811015610d6f57600080fd5b505190506000610d7e82611931565b90506000610d9382600563ffffffff61196e16565b90506000683635c9adc5dea000008211610dad5781610db8565b683635c9adc5dea000005b600b546001600160a01b03166000908152601660205260409020549091506969e10de76676d080000010610eaf57600b546001600160a01b0316600090815260166020526040902054610e1290829063ffffffff61149116565b600b80546001600160a01b03908116600090815260166020908152604080832095909555600f54935485516340c10f1960e01b8152908416600482015260248101879052945193909216936340c10f19936044808301949391928390030190829087803b158015610e8257600080fd5b505af1158015610e96573d6000803e3d6000fd5b505050506040513d6020811015610eac57600080fd5b50505b600c546001600160a01b03166000908152601660205260409020546969e10de76676d080000010610fa357600c546001600160a01b0316600090815260166020526040902054610f0690829063ffffffff61149116565b600c80546001600160a01b03908116600090815260166020908152604080832095909555600f54935485516340c10f1960e01b8152908416600482015260248101879052945193909216936340c10f19936044808301949391928390030190829087803b158015610f7657600080fd5b505af1158015610f8a573d6000803e3d6000fd5b505050506040513d6020811015610fa057600080fd5b50505b50505050565b6013546001600160a01b031681565b60065460ff1690565b60045490565b60156020526000908152604090205481565b601754610100900460ff1681565b62019a28600a5410611037576040805162461bcd60e51b81526020600482015260146024820152731519585b48119d5b991cc8115e1a185d5cdd195960621b604482015290519081900360640190fd5b60175460ff166110785760405162461bcd60e51b8152600401808060200182810382526023815260200180611f0f6023913960400191505060405180910390fd5b601754610100900460ff16156110d5576040805162461bcd60e51b815260206004820152601a60248201527f5465616d20576974686472617720697320636f6d706c65746564000000000000604482015290519081900360640190fd5b6017805461ff001916610100179055600a546110f99061138863ffffffff61149116565b600a55600f54600c54604080516340c10f1960e01b81526001600160a01b039283166004820152683635c9adc5dea000006024820152905191909216916340c10f199160448083019260209291908290030181600087803b15801561115d57600080fd5b505af1158015611171573d6000803e3d6000fd5b505050506040513d602081101561118757600080fd5b5050600f54600b54604080516340c10f1960e01b81526001600160a01b039283166004820152686c6b935b8bbd4000006024820152905191909216916340c10f199160448083019260209291908290030181600087803b1580156111ea57600080fd5b505af11580156111fe573d6000803e3d6000fd5b505050506040513d602081101561121457600080fd5b5050600f54600e54604080516340c10f1960e01b81526001600160a01b039283166004820152683635c9adc5dea000006024820152905191909216916340c10f199160448083019260209291908290030181600087803b15801561127757600080fd5b505af115801561128b573d6000803e3d6000fd5b505050506040513d60208110156112a157600080fd5b5050600f54600d54604080516340c10f1960e01b81526001600160a01b039283166004820152683635c9adc5dea000006024820152905191909216916340c10f199160448083019260209291908290030181600087803b15801561130457600080fd5b505af1158015611318573d6000803e3d6000fd5b505050506040513d602081101561132e57600080fd5b5050600b5447906001600160a01b03166108fc61135283600263ffffffff6119c716565b6040518115909202916000818181858888f1935050505015801561137a573d6000803e3d6000fd5b50600c546001600160a01b03166108fc61139b83600263ffffffff6119c716565b6040518115909202916000818181858888f193505050501580156113c3573d6000803e3d6000fd5b5050565b60095481565b600b546001600160a01b031681565b60005461010090046001600160a01b031690565b60166020526000908152604090205481565b600c546001600160a01b031681565b611419610a3b565b61146a576040805162461bcd60e51b815260206004820152601860248201527f54696d656443726f776473616c653a206e6f74206f70656e0000000000000000604482015290519081900360640190fd5b6113c38282611a09565b600061148b6002548361196e90919063ffffffff16565b92915050565b6000828201838110156114eb576040805162461bcd60e51b815260206004820152601b60248201527f536166654d6174683a206164646974696f6e206f766572666c6f770000000000604482015290519081900360640190fd5b9392505050565b6113c38282611aa0565b60075461150f903463ffffffff61149116565b600755565b604080517f19457468657265756d205369676e6564204d6573736167653a0a333200000000602080830191909152603c8083019490945282518083039094018452605c909101909152815191012090565b60008060008061157485611b84565b604080516000815260208082018084528c905260ff8616828401526060820185905260808201849052915194975092955090935060019260a080840193601f198301929081900390910190855afa1580156115d3573d6000803e3d6000fd5b5050604051601f190151979650505050505050565b600061160460506115f847611931565b9063ffffffff61196e16565b600f54604080516340c10f1960e01b81523060048201526024810184905290519293506001600160a01b03909116916340c10f19916044808201926020929091908290030181600087803b15801561165b57600080fd5b505af115801561166f573d6000803e3d6000fd5b505050506040513d602081101561168557600080fd5b5050600f546010546040805163095ea7b360e01b81526001600160a01b039283166004820152602481018590529051919092169163095ea7b39160448083019260209291908290030181600087803b1580156116e057600080fd5b505af11580156116f4573d6000803e3d6000fd5b505050506040513d602081101561170a57600080fd5b5050601054600f546040805163f305d71960e01b81526001600160a01b039283166004820152602481018590526044810185905260648101859052600060848201524260a48201529051919092169163f305d71991849160c48082019260609290919082900301818588803b15801561178257600080fd5b505af1158015611796573d6000803e3d6000fd5b50505050506040513d60608110156117ad57600080fd5b50506017805460ff191660011790556010546040805163c45a015560e01b815290516118b0926001600160a01b03169163c45a0155916004808301926020929190829003018186803b15801561180257600080fd5b505afa158015611816573d6000803e3d6000fd5b505050506040513d602081101561182c57600080fd5b5051601054604080516315ab88c960e31b815290516001600160a01b039092169163ad5c464891600480820192602092909190829003018186803b15801561187357600080fd5b505afa158015611887573d6000803e3d6000fd5b505050506040513d602081101561189d57600080fd5b5051600f546001600160a01b0316611bef565b601380546001600160a01b0319166001600160a01b03929092169190911790556118d86113dc565b6001600160a01b0316633f4ba83a6040518163ffffffff1660e01b8152600401600060405180830381600087803b15801561191257600080fd5b505af1158015611926573d6000803e3d6000fd5b505042600955505050565b60008061193f836064611caf565b9050600061196661271061195a84606463ffffffff61196e16565b9063ffffffff6119c716565b949350505050565b60008261197d5750600061148b565b8282028284828161198a57fe5b04146114eb5760405162461bcd60e51b8152600401808060200182810382526021815260200180611f326021913960400191505060405180910390fd5b60006114eb83836040518060400160405280601a81526020017f536166654d6174683a206469766973696f6e206279207a65726f000000000000815250611d07565b6001600160a01b038216611a4e5760405162461bcd60e51b815260040180806020018281038252602a815260200180611f7a602a913960400191505060405180910390fd5b806113c3576040805162461bcd60e51b815260206004820152601960248201527f43726f776473616c653a20776569416d6f756e74206973203000000000000000604482015290519081900360640190fd5b611aa86113dc565b6001600160a01b03166340c10f1983836040518363ffffffff1660e01b815260040180836001600160a01b03166001600160a01b0316815260200182815260200192505050602060405180830381600087803b158015611b0757600080fd5b505af1158015611b1b573d6000803e3d6000fd5b505050506040513d6020811015611b3157600080fd5b50516113c3576040805162461bcd60e51b815260206004820152601f60248201527f4d696e74656443726f776473616c653a206d696e74696e67206661696c656400604482015290519081900360640190fd5b60008060008351604114611bd3576040805162461bcd60e51b8152602060048201526011602482015270496e76616c6964205349676e617475726560781b604482015290519081900360640190fd5b5050506020810151604082015160609092015160001a92909190565b6000806000611bfe8585611da9565b604080516bffffffffffffffffffffffff19606094851b811660208084019190915293851b81166034830152825160288184030181526048830184528051908501206001600160f81b031960688401529a90941b9093166069840152607d8301989098527f96e8ac4277198ff8b6f785478aa9a39f403cb768dd02cbee326c3e7da348845f609d808401919091528851808403909101815260bd909201909752805196019590952095945050505050565b600080611cc2848463ffffffff61149116565b90506000611cd782600163ffffffff611e7716565b90506000611ceb828663ffffffff6119c716565b9050611cfd818663ffffffff61196e16565b9695505050505050565b60008183611d935760405162461bcd60e51b81526004018080602001828103825283818151815260200191508051906020019080838360005b83811015611d58578181015183820152602001611d40565b50505050905090810190601f168015611d855780820380516001836020036101000a031916815260200191505b509250505060405180910390fd5b506000838581611d9f57fe5b0495945050505050565b600080826001600160a01b0316846001600160a01b03161415611ded576040805162461bcd60e51b8152602060048201526000602482015290519081900360640190fd5b826001600160a01b0316846001600160a01b031610611e0d578284611e10565b83835b90925090506001600160a01b038216611e70576040805162461bcd60e51b815260206004820152601e60248201527f556e697377617056324c6962726172793a205a45524f5f414444524553530000604482015290519081900360640190fd5b9250929050565b60006114eb83836040518060400160405280601e81526020017f536166654d6174683a207375627472616374696f6e206f766572666c6f77000081525060008184841115611f065760405162461bcd60e51b8152602060048201818152835160248401528351909283926044909101919085019080838360008315611d58578181015183820152602001611d40565b50505090039056fe43726561746520556e69737761702050616972204265666f7265205769746864726177536166654d6174683a206d756c7469706c69636174696f6e206f766572666c6f7746696e616c697a61626c6543726f776473616c653a20616c72656164792066696e616c697a656443726f776473616c653a2062656e656669636961727920697320746865207a65726f2061646472657373496e76616c696420546f6c6c2042616c616e636520617420436c61696d2054696d65a265627a7a72315820c4cfd6ad18412e9ef378bc39fc8fe5650a963be50a95b0c7e1a45be9da903fdf64736f6c6343000511003254696d656443726f776473616c653a206f70656e696e672074696d65206973206265666f72652063757272656e742074696d6554696d656443726f776473616c653a206f70656e696e672074696d65206973206e6f74206265666f726520636c6f73696e672074696d6543726f776473616c653a20746f6b656e20697320746865207a65726f206164647265737343726f776473616c653a2077616c6c657420697320746865207a65726f2061646472657373",
    "sourcePath": "/sites/contracts/tollfree/src/Presale.sol",
    "compiler": {
        "name": "solc",
        "version": "0.5.17+commit.d19bba13"
    },
    "functionHashes": {
        "adminTeam()": "fde06b2e",
        "buyTokens(address)": "ec8ac4d8",
        "claim(uint256,uint256,bytes,address)": "09066d7c",
        "claims(address)": "c6788bdd",
        "closingTime()": "4b6753bc",
        "devTeam()": "d3dcc175",
        "exchangeAddress()": "9cd01605",
        "finalize()": "4bb278f3",
        "finalized()": "b3f05b97",
        "hasClosed()": "1515bc2b",
        "isOpen()": "47535d7b",
        "liquidityLocked()": "57976fb4",
        "marketingTeam()": "777ed97d",
        "openingTime()": "b7a8807c",
        "oracle()": "7dc0d1d0",
        "rate()": "2c4e722e",
        "releaseTeamShare()": "8cbe363e",
        "salesTeam()": "1eb2b29d",
        "teamFunds(address)": "fc70f0a3",
        "teamWithdraw()": "cfbb7d36",
        "teamWithdrawn()": "c816488e",
        "timelock()": "d33219b4",
        "token()": "fc0c546a",
        "totalClaims()": "41c61383",
        "totalPresale()": "6bd3d406",
        "totalTeamFundsWithdrawn()": "6856a5d9",
        "usedNonces(uint256)": "6717e41c",
        "wallet()": "521eb273",
        "weiRaised()": "4042b66f"
    },
    "gasEstimates": {
        "creation": {
            "codeDepositCost": "1637200",
            "executionCost": "infinite",
            "totalCost": "infinite"
        },
        "external": {
            "": "infinite",
            "adminTeam()": "1147",
            "buyTokens(address)": "infinite",
            "claim(uint256,uint256,bytes,address)": "infinite",
            "claims(address)": "1235",
            "closingTime()": "1044",
            "devTeam()": "1148",
            "exchangeAddress()": "1082",
            "finalize()": "infinite",
            "finalized()": "1077",
            "hasClosed()": "1078",
            "isOpen()": "1965",
            "liquidityLocked()": "1055",
            "marketingTeam()": "1083",
            "openingTime()": "1087",
            "oracle()": "1105",
            "rate()": "1044",
            "releaseTeamShare()": "infinite",
            "salesTeam()": "1128",
            "teamFunds(address)": "1212",
            "teamWithdraw()": "infinite",
            "teamWithdrawn()": "1066",
            "timelock()": "1087",
            "token()": "1114",
            "totalClaims()": "1088",
            "totalPresale()": "1109",
            "totalTeamFundsWithdrawn()": "1087",
            "usedNonces(uint256)": "1185",
            "wallet()": "1127",
            "weiRaised()": "1066"
        },
        "internal": {
            "_finalization()": "infinite",
            "_forwardFunds()": "infinite",
            "addPrefix(bytes32)": "infinite",
            "ceil(uint256,uint256)": "infinite",
            "decodeSignature(bytes memory)": "infinite",
            "onePercent(uint256)": "infinite",
            "pairFor(address,address,address)": "infinite",
            "sortTokens(address,address)": "infinite",
            "whoSigned(bytes32,bytes memory)": "infinite"
        }
    }
}