{
    "contractName": "TOLL",
    "abi": [
        {
            "inputs": [],
            "payable": false,
            "stateMutability": "nonpayable",
            "type": "constructor"
        },
        {
            "anonymous": false,
            "inputs": [
                {
                    "indexed": true,
                    "internalType": "address",
                    "name": "owner",
                    "type": "address"
                },
                {
                    "indexed": true,
                    "internalType": "address",
                    "name": "spender",
                    "type": "address"
                },
                {
                    "indexed": false,
                    "internalType": "uint256",
                    "name": "value",
                    "type": "uint256"
                }
            ],
            "name": "Approval",
            "type": "event"
        },
        {
            "anonymous": false,
            "inputs": [
                {
                    "indexed": true,
                    "internalType": "address",
                    "name": "account",
                    "type": "address"
                }
            ],
            "name": "MinterAdded",
            "type": "event"
        },
        {
            "anonymous": false,
            "inputs": [
                {
                    "indexed": true,
                    "internalType": "address",
                    "name": "account",
                    "type": "address"
                }
            ],
            "name": "MinterRemoved",
            "type": "event"
        },
        {
            "anonymous": false,
            "inputs": [
                {
                    "indexed": false,
                    "internalType": "address",
                    "name": "account",
                    "type": "address"
                }
            ],
            "name": "Paused",
            "type": "event"
        },
        {
            "anonymous": false,
            "inputs": [
                {
                    "indexed": true,
                    "internalType": "address",
                    "name": "account",
                    "type": "address"
                }
            ],
            "name": "PauserAdded",
            "type": "event"
        },
        {
            "anonymous": false,
            "inputs": [
                {
                    "indexed": true,
                    "internalType": "address",
                    "name": "account",
                    "type": "address"
                }
            ],
            "name": "PauserRemoved",
            "type": "event"
        },
        {
            "anonymous": false,
            "inputs": [
                {
                    "indexed": true,
                    "internalType": "address",
                    "name": "from",
                    "type": "address"
                },
                {
                    "indexed": true,
                    "internalType": "address",
                    "name": "to",
                    "type": "address"
                },
                {
                    "indexed": false,
                    "internalType": "uint256",
                    "name": "value",
                    "type": "uint256"
                }
            ],
            "name": "Transfer",
            "type": "event"
        },
        {
            "anonymous": false,
            "inputs": [
                {
                    "indexed": false,
                    "internalType": "address",
                    "name": "account",
                    "type": "address"
                }
            ],
            "name": "Unpaused",
            "type": "event"
        },
        {
            "constant": false,
            "inputs": [
                {
                    "internalType": "address",
                    "name": "account",
                    "type": "address"
                }
            ],
            "name": "addMinter",
            "outputs": [],
            "payable": false,
            "stateMutability": "nonpayable",
            "type": "function"
        },
        {
            "constant": false,
            "inputs": [
                {
                    "internalType": "address",
                    "name": "account",
                    "type": "address"
                }
            ],
            "name": "addPauser",
            "outputs": [],
            "payable": false,
            "stateMutability": "nonpayable",
            "type": "function"
        },
        {
            "constant": true,
            "inputs": [
                {
                    "internalType": "address",
                    "name": "owner",
                    "type": "address"
                },
                {
                    "internalType": "address",
                    "name": "spender",
                    "type": "address"
                }
            ],
            "name": "allowance",
            "outputs": [
                {
                    "internalType": "uint256",
                    "name": "",
                    "type": "uint256"
                }
            ],
            "payable": false,
            "stateMutability": "view",
            "type": "function"
        },
        {
            "constant": false,
            "inputs": [
                {
                    "internalType": "address",
                    "name": "spender",
                    "type": "address"
                },
                {
                    "internalType": "uint256",
                    "name": "value",
                    "type": "uint256"
                }
            ],
            "name": "approve",
            "outputs": [
                {
                    "internalType": "bool",
                    "name": "",
                    "type": "bool"
                }
            ],
            "payable": false,
            "stateMutability": "nonpayable",
            "type": "function"
        },
        {
            "constant": true,
            "inputs": [
                {
                    "internalType": "address",
                    "name": "account",
                    "type": "address"
                }
            ],
            "name": "balanceOf",
            "outputs": [
                {
                    "internalType": "uint256",
                    "name": "",
                    "type": "uint256"
                }
            ],
            "payable": false,
            "stateMutability": "view",
            "type": "function"
        },
        {
            "constant": false,
            "inputs": [
                {
                    "internalType": "uint256",
                    "name": "amount",
                    "type": "uint256"
                }
            ],
            "name": "burn",
            "outputs": [],
            "payable": false,
            "stateMutability": "nonpayable",
            "type": "function"
        },
        {
            "constant": false,
            "inputs": [
                {
                    "internalType": "address",
                    "name": "account",
                    "type": "address"
                },
                {
                    "internalType": "uint256",
                    "name": "amount",
                    "type": "uint256"
                }
            ],
            "name": "burnFrom",
            "outputs": [],
            "payable": false,
            "stateMutability": "nonpayable",
            "type": "function"
        },
        {
            "constant": true,
            "inputs": [],
            "name": "decimals",
            "outputs": [
                {
                    "internalType": "uint8",
                    "name": "",
                    "type": "uint8"
                }
            ],
            "payable": false,
            "stateMutability": "view",
            "type": "function"
        },
        {
            "constant": false,
            "inputs": [
                {
                    "internalType": "address",
                    "name": "spender",
                    "type": "address"
                },
                {
                    "internalType": "uint256",
                    "name": "subtractedValue",
                    "type": "uint256"
                }
            ],
            "name": "decreaseAllowance",
            "outputs": [
                {
                    "internalType": "bool",
                    "name": "",
                    "type": "bool"
                }
            ],
            "payable": false,
            "stateMutability": "nonpayable",
            "type": "function"
        },
        {
            "constant": false,
            "inputs": [
                {
                    "internalType": "address",
                    "name": "spender",
                    "type": "address"
                },
                {
                    "internalType": "uint256",
                    "name": "addedValue",
                    "type": "uint256"
                }
            ],
            "name": "increaseAllowance",
            "outputs": [
                {
                    "internalType": "bool",
                    "name": "",
                    "type": "bool"
                }
            ],
            "payable": false,
            "stateMutability": "nonpayable",
            "type": "function"
        },
        {
            "constant": true,
            "inputs": [
                {
                    "internalType": "address",
                    "name": "account",
                    "type": "address"
                }
            ],
            "name": "isMinter",
            "outputs": [
                {
                    "internalType": "bool",
                    "name": "",
                    "type": "bool"
                }
            ],
            "payable": false,
            "stateMutability": "view",
            "type": "function"
        },
        {
            "constant": true,
            "inputs": [
                {
                    "internalType": "address",
                    "name": "account",
                    "type": "address"
                }
            ],
            "name": "isPauser",
            "outputs": [
                {
                    "internalType": "bool",
                    "name": "",
                    "type": "bool"
                }
            ],
            "payable": false,
            "stateMutability": "view",
            "type": "function"
        },
        {
            "constant": false,
            "inputs": [
                {
                    "internalType": "address",
                    "name": "account",
                    "type": "address"
                },
                {
                    "internalType": "uint256",
                    "name": "amount",
                    "type": "uint256"
                }
            ],
            "name": "mint",
            "outputs": [
                {
                    "internalType": "bool",
                    "name": "",
                    "type": "bool"
                }
            ],
            "payable": false,
            "stateMutability": "nonpayable",
            "type": "function"
        },
        {
            "constant": true,
            "inputs": [],
            "name": "name",
            "outputs": [
                {
                    "internalType": "string",
                    "name": "",
                    "type": "string"
                }
            ],
            "payable": false,
            "stateMutability": "view",
            "type": "function"
        },
        {
            "constant": false,
            "inputs": [],
            "name": "pause",
            "outputs": [],
            "payable": false,
            "stateMutability": "nonpayable",
            "type": "function"
        },
        {
            "constant": true,
            "inputs": [],
            "name": "paused",
            "outputs": [
                {
                    "internalType": "bool",
                    "name": "",
                    "type": "bool"
                }
            ],
            "payable": false,
            "stateMutability": "view",
            "type": "function"
        },
        {
            "constant": false,
            "inputs": [],
            "name": "renounceMinter",
            "outputs": [],
            "payable": false,
            "stateMutability": "nonpayable",
            "type": "function"
        },
        {
            "constant": false,
            "inputs": [],
            "name": "renouncePauser",
            "outputs": [],
            "payable": false,
            "stateMutability": "nonpayable",
            "type": "function"
        },
        {
            "constant": true,
            "inputs": [],
            "name": "symbol",
            "outputs": [
                {
                    "internalType": "string",
                    "name": "",
                    "type": "string"
                }
            ],
            "payable": false,
            "stateMutability": "view",
            "type": "function"
        },
        {
            "constant": true,
            "inputs": [],
            "name": "totalSupply",
            "outputs": [
                {
                    "internalType": "uint256",
                    "name": "",
                    "type": "uint256"
                }
            ],
            "payable": false,
            "stateMutability": "view",
            "type": "function"
        },
        {
            "constant": false,
            "inputs": [
                {
                    "internalType": "address",
                    "name": "to",
                    "type": "address"
                },
                {
                    "internalType": "uint256",
                    "name": "value",
                    "type": "uint256"
                }
            ],
            "name": "transfer",
            "outputs": [
                {
                    "internalType": "bool",
                    "name": "",
                    "type": "bool"
                }
            ],
            "payable": false,
            "stateMutability": "nonpayable",
            "type": "function"
        },
        {
            "constant": false,
            "inputs": [
                {
                    "internalType": "address",
                    "name": "from",
                    "type": "address"
                },
                {
                    "internalType": "address",
                    "name": "to",
                    "type": "address"
                },
                {
                    "internalType": "uint256",
                    "name": "value",
                    "type": "uint256"
                }
            ],
            "name": "transferFrom",
            "outputs": [
                {
                    "internalType": "bool",
                    "name": "",
                    "type": "bool"
                }
            ],
            "payable": false,
            "stateMutability": "nonpayable",
            "type": "function"
        },
        {
            "constant": false,
            "inputs": [],
            "name": "unpause",
            "outputs": [],
            "payable": false,
            "stateMutability": "nonpayable",
            "type": "function"
        }
    ],
    "bytecode": "60806040523480156200001157600080fd5b5060405180604001604052806004815260200163151bdb1b60e21b815250604051806040016040528060048152602001631513d31360e21b81525060126200007162000062620000ea60201b60201c565b6001600160e01b03620000ef16565b6004805460ff19169055620000a1620000926001600160e01b03620000ea16565b6001600160e01b036200014116565b8251620000b690600690602086019062000289565b508151620000cc90600790602085019062000289565b506008805460ff191660ff92909216919091179055506200032b9050565b335b90565b6200010a8160036200019360201b620013f31790919060201c565b6040516001600160a01b038216907f6719d08c1888103bea251a4ed56406bd0c3e69723c8a1686e017e7bbe159b6f890600090a250565b6200015c8160056200019360201b620013f31790919060201c565b6040516001600160a01b038216907f6ae172837ea30b801fbfcdd4108aa1d5bf8ff775444fd70256b44e6bf3dfc3f690600090a250565b620001a882826001600160e01b036200022016565b15620001fb576040805162461bcd60e51b815260206004820152601f60248201527f526f6c65733a206163636f756e7420616c72656164792068617320726f6c6500604482015290519081900360640190fd5b6001600160a01b0316600090815260209190915260409020805460ff19166001179055565b60006001600160a01b038216620002695760405162461bcd60e51b8152600401808060200182810382526022815260200180620019ef6022913960400191505060405180910390fd5b506001600160a01b03166000908152602091909152604090205460ff1690565b828054600181600116156101000203166002900490600052602060002090601f016020900481019282601f10620002cc57805160ff1916838001178555620002fc565b82800160010185558215620002fc579182015b82811115620002fc578251825591602001919060010190620002df565b506200030a9291506200030e565b5090565b620000ec91905b808211156200030a576000815560010162000315565b6116b4806200033b6000396000f3fe608060405234801561001057600080fd5b506004361061014d5760003560e01c80636ef8d66d116100c3578063983b2d561161007c578063983b2d56146103ba57806398650275146103e0578063a457c2d7146103e8578063a9059cbb14610414578063aa271e1a14610440578063dd62ed3e146104665761014d565b80636ef8d66d1461032a57806370a082311461033257806379cc67901461035857806382dc1ec4146103845780638456cb59146103aa57806395d89b41146103b25761014d565b80633950935111610115578063395093511461027d5780633f4ba83a146102a957806340c10f19146102b357806342966c68146102df57806346fbf68e146102fc5780635c975abb146103225761014d565b806306fdde0314610152578063095ea7b3146101cf57806318160ddd1461020f57806323b872dd14610229578063313ce5671461025f575b600080fd5b61015a610494565b6040805160208082528351818301528351919283929083019185019080838360005b8381101561019457818101518382015260200161017c565b50505050905090810190601f1680156101c15780820380516001836020036101000a031916815260200191505b509250505060405180910390f35b6101fb600480360360408110156101e557600080fd5b506001600160a01b03813516906020013561052a565b604080519115158252519081900360200190f35b610217610589565b60408051918252519081900360200190f35b6101fb6004803603606081101561023f57600080fd5b506001600160a01b0381358116916020810135909116906040013561058f565b6102676105f0565b6040805160ff9092168252519081900360200190f35b6101fb6004803603604081101561029357600080fd5b506001600160a01b0381351690602001356105f9565b6102b1610651565b005b6101fb600480360360408110156102c957600080fd5b506001600160a01b03813516906020013561073a565b6102b1600480360360208110156102f557600080fd5b503561079a565b6101fb6004803603602081101561031257600080fd5b50356001600160a01b03166107ae565b6101fb6107c7565b6102b16107d0565b6102176004803603602081101561034857600080fd5b50356001600160a01b03166107e2565b6102b16004803603604081101561036e57600080fd5b506001600160a01b0381351690602001356107fd565b6102b16004803603602081101561039a57600080fd5b50356001600160a01b031661080b565b6102b161085a565b61015a610921565b6102b1600480360360208110156103d057600080fd5b50356001600160a01b0316610982565b6102b16109d1565b6101fb600480360360408110156103fe57600080fd5b506001600160a01b0381351690602001356109e1565b6101fb6004803603604081101561042a57600080fd5b506001600160a01b038135169060200135610a39565b6101fb6004803603602081101561045657600080fd5b50356001600160a01b0316610a91565b6102176004803603604081101561047c57600080fd5b506001600160a01b0381358116916020013516610aa4565b60068054604080516020601f60026000196101006001881615020190951694909404938401819004810282018101909252828152606093909290918301828280156105205780601f106104f557610100808354040283529160200191610520565b820191906000526020600020905b81548152906001019060200180831161050357829003601f168201915b5050505050905090565b60045460009060ff1615610578576040805162461bcd60e51b815260206004820152601060248201526f14185d5cd8589b194e881c185d5cd95960821b604482015290519081900360640190fd5b6105828383610acf565b9392505050565b60025490565b60045460009060ff16156105dd576040805162461bcd60e51b815260206004820152601060248201526f14185d5cd8589b194e881c185d5cd95960821b604482015290519081900360640190fd5b6105e8848484610ae3565b949350505050565b60085460ff1690565b60045460009060ff1615610647576040805162461bcd60e51b815260206004820152601060248201526f14185d5cd8589b194e881c185d5cd95960821b604482015290519081900360640190fd5b6105828383610b70565b61066161065c610bc4565b6107ae565b61069c5760405162461bcd60e51b81526004018080602001828103825260308152602001806114ba6030913960400191505060405180910390fd5b60045460ff166106ea576040805162461bcd60e51b815260206004820152601460248201527314185d5cd8589b194e881b9bdd081c185d5cd95960621b604482015290519081900360640190fd5b6004805460ff191690557f5db9ee0a495bf2e6ff9c91a7834c1ba4fdd244a5e8aa4e537bd38aeae4b073aa61071d610bc4565b604080516001600160a01b039092168252519081900360200190a1565b600061074c610747610bc4565b610a91565b6107875760405162461bcd60e51b81526004018080602001828103825260308152602001806115326030913960400191505060405180910390fd5b6107918383610bc8565b50600192915050565b6107ab6107a5610bc4565b82610cb8565b50565b60006107c160038363ffffffff610db416565b92915050565b60045460ff1690565b6107e06107db610bc4565b610e1b565b565b6001600160a01b031660009081526020819052604090205490565b6108078282610e63565b5050565b61081661065c610bc4565b6108515760405162461bcd60e51b81526004018080602001828103825260308152602001806114ba6030913960400191505060405180910390fd5b6107ab81610eb7565b61086561065c610bc4565b6108a05760405162461bcd60e51b81526004018080602001828103825260308152602001806114ba6030913960400191505060405180910390fd5b60045460ff16156108eb576040805162461bcd60e51b815260206004820152601060248201526f14185d5cd8589b194e881c185d5cd95960821b604482015290519081900360640190fd5b6004805460ff191660011790557f62e78cea01bee320cd4e420270b5ea74000d11b0c9f74754ebdbfc544b05a25861071d610bc4565b60078054604080516020601f60026000196101006001881615020190951694909404938401819004810282018101909252828152606093909290918301828280156105205780601f106104f557610100808354040283529160200191610520565b61098d610747610bc4565b6109c85760405162461bcd60e51b81526004018080602001828103825260308152602001806115326030913960400191505060405180910390fd5b6107ab81610eff565b6107e06109dc610bc4565b610f47565b60045460009060ff1615610a2f576040805162461bcd60e51b815260206004820152601060248201526f14185d5cd8589b194e881c185d5cd95960821b604482015290519081900360640190fd5b6105828383610f8f565b60045460009060ff1615610a87576040805162461bcd60e51b815260206004820152601060248201526f14185d5cd8589b194e881c185d5cd95960821b604482015290519081900360640190fd5b6105828383610ffd565b60006107c160058363ffffffff610db416565b6001600160a01b03918216600090815260016020908152604080832093909416825291909152205490565b6000610791610adc610bc4565b8484611011565b6000610af08484846110fd565b610b6684610afc610bc4565b610b6185604051806060016040528060288152602001611583602891396001600160a01b038a16600090815260016020526040812090610b3a610bc4565b6001600160a01b03168152602081019190915260400160002054919063ffffffff61125916565b611011565b5060019392505050565b6000610791610b7d610bc4565b84610b618560016000610b8e610bc4565b6001600160a01b03908116825260208083019390935260409182016000908120918c16815292529020549063ffffffff6112f016565b3390565b6001600160a01b038216610c23576040805162461bcd60e51b815260206004820152601f60248201527f45524332303a206d696e7420746f20746865207a65726f206164647265737300604482015290519081900360640190fd5b600254610c36908263ffffffff6112f016565b6002556001600160a01b038216600090815260208190526040902054610c62908263ffffffff6112f016565b6001600160a01b0383166000818152602081815260408083209490945583518581529351929391927fddf252ad1be2c89b69c2b068fc378daa952ba7f163c4a11628f55a4df523b3ef9281900390910190a35050565b6001600160a01b038216610cfd5760405162461bcd60e51b81526004018080602001828103825260218152602001806115f16021913960400191505060405180910390fd5b610d4081604051806060016040528060228152602001611498602291396001600160a01b038516600090815260208190526040902054919063ffffffff61125916565b6001600160a01b038316600090815260208190526040902055600254610d6c908263ffffffff61134a16565b6002556040805182815290516000916001600160a01b038516917fddf252ad1be2c89b69c2b068fc378daa952ba7f163c4a11628f55a4df523b3ef9181900360200190a35050565b60006001600160a01b038216610dfb5760405162461bcd60e51b81526004018080602001828103825260228152602001806115ab6022913960400191505060405180910390fd5b506001600160a01b03166000908152602091909152604090205460ff1690565b610e2c60038263ffffffff61138c16565b6040516001600160a01b038216907fcd265ebaf09df2871cc7bd4133404a235ba12eff2041bb89d9c714a2621c7c7e90600090a250565b610e6d8282610cb8565b61080782610e79610bc4565b610b61846040518060600160405280602481526020016115cd602491396001600160a01b038816600090815260016020526040812090610b3a610bc4565b610ec860038263ffffffff6113f316565b6040516001600160a01b038216907f6719d08c1888103bea251a4ed56406bd0c3e69723c8a1686e017e7bbe159b6f890600090a250565b610f1060058263ffffffff6113f316565b6040516001600160a01b038216907f6ae172837ea30b801fbfcdd4108aa1d5bf8ff775444fd70256b44e6bf3dfc3f690600090a250565b610f5860058263ffffffff61138c16565b6040516001600160a01b038216907fe94479a9f7e1952cc78f2d6baab678adc1b772d936c6583def489e524cb6669290600090a250565b6000610791610f9c610bc4565b84610b618560405180606001604052806025815260200161165b6025913960016000610fc6610bc4565b6001600160a01b03908116825260208083019390935260409182016000908120918d1681529252902054919063ffffffff61125916565b600061079161100a610bc4565b84846110fd565b6001600160a01b0383166110565760405162461bcd60e51b81526004018080602001828103825260248152602001806116376024913960400191505060405180910390fd5b6001600160a01b03821661109b5760405162461bcd60e51b81526004018080602001828103825260228152602001806114ea6022913960400191505060405180910390fd5b6001600160a01b03808416600081815260016020908152604080832094871680845294825291829020859055815185815291517f8c5be1e5ebec7d5bd14f71427d1e84f3dd0314c0f7b2291e5b200ac8c7c3b9259281900390910190a3505050565b6001600160a01b0383166111425760405162461bcd60e51b81526004018080602001828103825260258152602001806116126025913960400191505060405180910390fd5b6001600160a01b0382166111875760405162461bcd60e51b81526004018080602001828103825260238152602001806114756023913960400191505060405180910390fd5b6111ca8160405180606001604052806026815260200161150c602691396001600160a01b038616600090815260208190526040902054919063ffffffff61125916565b6001600160a01b0380851660009081526020819052604080822093909355908416815220546111ff908263ffffffff6112f016565b6001600160a01b038084166000818152602081815260409182902094909455805185815290519193928716927fddf252ad1be2c89b69c2b068fc378daa952ba7f163c4a11628f55a4df523b3ef92918290030190a3505050565b600081848411156112e85760405162461bcd60e51b81526004018080602001828103825283818151815260200191508051906020019080838360005b838110156112ad578181015183820152602001611295565b50505050905090810190601f1680156112da5780820380516001836020036101000a031916815260200191505b509250505060405180910390fd5b505050900390565b600082820183811015610582576040805162461bcd60e51b815260206004820152601b60248201527f536166654d6174683a206164646974696f6e206f766572666c6f770000000000604482015290519081900360640190fd5b600061058283836040518060400160405280601e81526020017f536166654d6174683a207375627472616374696f6e206f766572666c6f770000815250611259565b6113968282610db4565b6113d15760405162461bcd60e51b81526004018080602001828103825260218152602001806115626021913960400191505060405180910390fd5b6001600160a01b0316600090815260209190915260409020805460ff19169055565b6113fd8282610db4565b1561144f576040805162461bcd60e51b815260206004820152601f60248201527f526f6c65733a206163636f756e7420616c72656164792068617320726f6c6500604482015290519081900360640190fd5b6001600160a01b0316600090815260209190915260409020805460ff1916600117905556fe45524332303a207472616e7366657220746f20746865207a65726f206164647265737345524332303a206275726e20616d6f756e7420657863656564732062616c616e6365506175736572526f6c653a2063616c6c657220646f6573206e6f742068617665207468652050617573657220726f6c6545524332303a20617070726f766520746f20746865207a65726f206164647265737345524332303a207472616e7366657220616d6f756e7420657863656564732062616c616e63654d696e746572526f6c653a2063616c6c657220646f6573206e6f74206861766520746865204d696e74657220726f6c65526f6c65733a206163636f756e7420646f6573206e6f74206861766520726f6c6545524332303a207472616e7366657220616d6f756e74206578636565647320616c6c6f77616e6365526f6c65733a206163636f756e7420697320746865207a65726f206164647265737345524332303a206275726e20616d6f756e74206578636565647320616c6c6f77616e636545524332303a206275726e2066726f6d20746865207a65726f206164647265737345524332303a207472616e736665722066726f6d20746865207a65726f206164647265737345524332303a20617070726f76652066726f6d20746865207a65726f206164647265737345524332303a2064656372656173656420616c6c6f77616e63652062656c6f77207a65726fa265627a7a723158200fb28d6c4366797116072a93d59289d48a835534ca315ac6bfec8d19fdbacd9c64736f6c63430005110032526f6c65733a206163636f756e7420697320746865207a65726f2061646472657373",
    "sourcePath": "/sites/contracts/tollfree/src/TOLL.sol",
    "compiler": {
        "name": "solc",
        "version": "0.5.17+commit.d19bba13"
    },
    "functionHashes": {
        "addMinter(address)": "983b2d56",
        "addPauser(address)": "82dc1ec4",
        "allowance(address,address)": "dd62ed3e",
        "approve(address,uint256)": "095ea7b3",
        "balanceOf(address)": "70a08231",
        "burn(uint256)": "42966c68",
        "burnFrom(address,uint256)": "79cc6790",
        "decimals()": "313ce567",
        "decreaseAllowance(address,uint256)": "a457c2d7",
        "increaseAllowance(address,uint256)": "39509351",
        "isMinter(address)": "aa271e1a",
        "isPauser(address)": "46fbf68e",
        "mint(address,uint256)": "40c10f19",
        "name()": "06fdde03",
        "pause()": "8456cb59",
        "paused()": "5c975abb",
        "renounceMinter()": "98650275",
        "renouncePauser()": "6ef8d66d",
        "symbol()": "95d89b41",
        "totalSupply()": "18160ddd",
        "transfer(address,uint256)": "a9059cbb",
        "transferFrom(address,address,uint256)": "23b872dd",
        "unpause()": "3f4ba83a"
    },
    "gasEstimates": {
        "creation": {
            "codeDepositCost": "1162400",
            "executionCost": "infinite",
            "totalCost": "infinite"
        },
        "external": {
            "addMinter(address)": "infinite",
            "addPauser(address)": "infinite",
            "allowance(address,address)": "1382",
            "approve(address,uint256)": "infinite",
            "balanceOf(address)": "1190",
            "burn(uint256)": "infinite",
            "burnFrom(address,uint256)": "infinite",
            "decimals()": "1125",
            "decreaseAllowance(address,uint256)": "infinite",
            "increaseAllowance(address,uint256)": "infinite",
            "isMinter(address)": "infinite",
            "isPauser(address)": "infinite",
            "mint(address,uint256)": "infinite",
            "name()": "infinite",
            "pause()": "infinite",
            "paused()": "1143",
            "renounceMinter()": "infinite",
            "renouncePauser()": "infinite",
            "symbol()": "infinite",
            "totalSupply()": "1066",
            "transfer(address,uint256)": "infinite",
            "transferFrom(address,address,uint256)": "infinite",
            "unpause()": "infinite"
        }
    }
}