{
    "contractName": "UniswapV2Proxy",
    "abi": [
        {
            "inputs": [],
            "stateMutability": "nonpayable",
            "type": "constructor"
        },
        {
            "inputs": [],
            "name": "MINIMUM_TOLL",
            "outputs": [
                {
                    "internalType": "uint256",
                    "name": "",
                    "type": "uint256"
                }
            ],
            "stateMutability": "view",
            "type": "function"
        },
        {
            "inputs": [],
            "name": "TOLL_ADDRESS",
            "outputs": [
                {
                    "internalType": "address",
                    "name": "",
                    "type": "address"
                }
            ],
            "stateMutability": "view",
            "type": "function"
        },
        {
            "inputs": [],
            "name": "UNISWAP_ROUTER_ADDRESS",
            "outputs": [
                {
                    "internalType": "address",
                    "name": "",
                    "type": "address"
                }
            ],
            "stateMutability": "view",
            "type": "function"
        },
        {
            "inputs": [
                {
                    "internalType": "address",
                    "name": "",
                    "type": "address"
                }
            ],
            "name": "approvals",
            "outputs": [
                {
                    "internalType": "uint256",
                    "name": "",
                    "type": "uint256"
                }
            ],
            "stateMutability": "view",
            "type": "function"
        },
        {
            "inputs": [],
            "name": "gassend",
            "outputs": [
                {
                    "internalType": "uint256",
                    "name": "",
                    "type": "uint256"
                }
            ],
            "stateMutability": "view",
            "type": "function"
        },
        {
            "inputs": [],
            "name": "gasstart",
            "outputs": [
                {
                    "internalType": "uint256",
                    "name": "",
                    "type": "uint256"
                }
            ],
            "stateMutability": "view",
            "type": "function"
        },
        {
            "inputs": [
                {
                    "internalType": "uint256",
                    "name": "amountOut",
                    "type": "uint256"
                },
                {
                    "internalType": "address[]",
                    "name": "path",
                    "type": "address[]"
                },
                {
                    "internalType": "address",
                    "name": "to",
                    "type": "address"
                },
                {
                    "internalType": "uint256",
                    "name": "deadline",
                    "type": "uint256"
                }
            ],
            "name": "swapETHForExactTokens",
            "outputs": [
                {
                    "internalType": "uint256[]",
                    "name": "amounts",
                    "type": "uint256[]"
                }
            ],
            "stateMutability": "payable",
            "type": "function"
        },
        {
            "inputs": [
                {
                    "internalType": "uint256",
                    "name": "amountOutMin",
                    "type": "uint256"
                },
                {
                    "internalType": "address[]",
                    "name": "path",
                    "type": "address[]"
                },
                {
                    "internalType": "address",
                    "name": "to",
                    "type": "address"
                },
                {
                    "internalType": "uint256",
                    "name": "deadline",
                    "type": "uint256"
                }
            ],
            "name": "swapExactETHForTokens",
            "outputs": [
                {
                    "internalType": "uint256[]",
                    "name": "amounts",
                    "type": "uint256[]"
                }
            ],
            "stateMutability": "payable",
            "type": "function"
        },
        {
            "inputs": [
                {
                    "internalType": "uint256",
                    "name": "amountIn",
                    "type": "uint256"
                },
                {
                    "internalType": "uint256",
                    "name": "amountOutMin",
                    "type": "uint256"
                },
                {
                    "internalType": "address[]",
                    "name": "path",
                    "type": "address[]"
                },
                {
                    "internalType": "address",
                    "name": "to",
                    "type": "address"
                },
                {
                    "internalType": "uint256",
                    "name": "deadline",
                    "type": "uint256"
                }
            ],
            "name": "swapExactTokensForTokens",
            "outputs": [
                {
                    "internalType": "uint256[]",
                    "name": "amounts",
                    "type": "uint256[]"
                }
            ],
            "stateMutability": "nonpayable",
            "type": "function"
        },
        {
            "inputs": [
                {
                    "internalType": "uint256",
                    "name": "amountOut",
                    "type": "uint256"
                },
                {
                    "internalType": "uint256",
                    "name": "amountInMax",
                    "type": "uint256"
                },
                {
                    "internalType": "address[]",
                    "name": "path",
                    "type": "address[]"
                },
                {
                    "internalType": "address",
                    "name": "to",
                    "type": "address"
                },
                {
                    "internalType": "uint256",
                    "name": "deadline",
                    "type": "uint256"
                }
            ],
            "name": "swapTokensForExactETH",
            "outputs": [
                {
                    "internalType": "uint256[]",
                    "name": "amounts",
                    "type": "uint256[]"
                }
            ],
            "stateMutability": "nonpayable",
            "type": "function"
        },
        {
            "inputs": [
                {
                    "internalType": "uint256",
                    "name": "amountOut",
                    "type": "uint256"
                },
                {
                    "internalType": "uint256",
                    "name": "amountInMax",
                    "type": "uint256"
                },
                {
                    "internalType": "address[]",
                    "name": "path",
                    "type": "address[]"
                },
                {
                    "internalType": "address",
                    "name": "to",
                    "type": "address"
                },
                {
                    "internalType": "uint256",
                    "name": "deadline",
                    "type": "uint256"
                }
            ],
            "name": "swapTokensForExactTokens",
            "outputs": [
                {
                    "internalType": "uint256[]",
                    "name": "amounts",
                    "type": "uint256[]"
                }
            ],
            "stateMutability": "nonpayable",
            "type": "function"
        }
    ],
    "bytecode": "6080604052600080546001600160a01b031990811673420c6c82f5b8184bee86d457fc3d6a9db6355e3417825560018054909116737a250d5630b4cf539739df2c5dacb4c659f2488d1790556103966004556138f960055561b3b0600655600a819055600b553480156200007257600080fd5b5060018054600280546001600160a01b03199081166001600160a01b03938416178255600080546008805484169186169190911790819055600980549687018155918290527f6e1540171b6c0c960b71a7020d9f60077f6af931a8bbf590da0223dacf75c7af909501805490921694841694909417905554604080516315ab88c960e31b81529051919092169163ad5c4648916004808301926020929190829003018186803b1580156200012557600080fd5b505afa1580156200013a573d6000803e3d6000fd5b505050506040513d60208110156200015157600080fd5b5051815460018101835560009283526020928390200180546001600160a01b0319166001600160a01b039283161790556002546040805163c45a015560e01b81529051919092169263c45a01559260048082019391829003018186803b158015620001bb57600080fd5b505afa158015620001d0573d6000803e3d6000fd5b505050506040513d6020811015620001e757600080fd5b5051600380546001600160a01b0319166001600160a01b039092169190911790556124ea80620002186000396000f3fe60806040526004361061009c5760003560e01c80636770e264116100645780636770e264146102a857806379b36943146102bd5780637ff36ab5146102d25780638803dbee14610356578063eedddb77146103ec578063fb3bdb41146104015761009c565b80631ae7f709146100a157806338ed1739146100d25780634a25d94a146101b8578063537323ec1461024e5780635d0341ba14610275575b600080fd5b3480156100ad57600080fd5b506100b6610485565b604080516001600160a01b039092168252519081900360200190f35b3480156100de57600080fd5b50610168600480360360a08110156100f557600080fd5b813591602081013591810190606081016040820135600160201b81111561011b57600080fd5b82018360208201111561012d57600080fd5b803590602001918460208302840111600160201b8311171561014e57600080fd5b91935091506001600160a01b038135169060200135610494565b60408051602080825283518183015283519192839290830191858101910280838360005b838110156101a457818101518382015260200161018c565b505050509050019250505060405180910390f35b3480156101c457600080fd5b50610168600480360360a08110156101db57600080fd5b813591602081013591810190606081016040820135600160201b81111561020157600080fd5b82018360208201111561021357600080fd5b803590602001918460208302840111600160201b8311171561023457600080fd5b91935091506001600160a01b038135169060200135610a58565b34801561025a57600080fd5b50610263611190565b60408051918252519081900360200190f35b34801561028157600080fd5b506102636004803603602081101561029857600080fd5b50356001600160a01b0316611196565b3480156102b457600080fd5b506102636111a8565b3480156102c957600080fd5b506100b66111ae565b610168600480360360808110156102e857600080fd5b81359190810190604081016020820135600160201b81111561030957600080fd5b82018360208201111561031b57600080fd5b803590602001918460208302840111600160201b8311171561033c57600080fd5b91935091506001600160a01b0381351690602001356111bd565b34801561036257600080fd5b50610168600480360360a081101561037957600080fd5b813591602081013591810190606081016040820135600160201b81111561039f57600080fd5b8201836020820111156103b157600080fd5b803590602001918460208302840111600160201b831117156103d257600080fd5b91935091506001600160a01b038135169060200135611583565b3480156103f857600080fd5b50610263611aea565b6101686004803603608081101561041757600080fd5b81359190810190604081016020820135600160201b81111561043857600080fd5b82018360208201111561044a57600080fd5b803590602001918460208302840111600160201b8311171561046b57600080fd5b91935091506001600160a01b038135169060200135611b9a565b6000546001600160a01b031681565b60605a600a556004546000906104ab905a906120f8565b905060006104d5878760008181106104bf57fe5b905060200201356001600160a01b03163361215b565b9050670de0b6b3a764000082111561052d576040805162461bcd60e51b81526020600482015260166024820152751026b0bc103932b33ab7321034b990189022ba3432b960511b604482015290519081900360640190fd5b610535611aea565b600854604080516370a0823160e01b815233600482015290516001600160a01b03909216916370a0823191602480820192602092909190829003018186803b15801561058057600080fd5b505afa158015610594573d6000803e3d6000fd5b505050506040513d60208110156105aa57600080fd5b505110156105f3576040805162461bcd60e51b81526020600482015260116024820152702637bb902324aa24102130b630b731b29760791b604482015290519081900360640190fd5b600080546001600160a01b031690889088908161060c57fe5b905060200201356001600160a01b03166001600160a01b03161415610666576040805162461bcd60e51b815260206004820152601c6024820152600080516020612451833981519152604482015290519081900360640190fd5b8686600081811061067357fe5b604080516323b872dd60e01b8152336004820152306024820152604481018e90529051602092830294909401356001600160a01b0316936323b872dd9350606480830193928290030181600087803b1580156106ce57600080fd5b505af11580156106e2573d6000803e3d6000fd5b505050506040513d60208110156106f857600080fd5b5051610742576040805162461bcd60e51b81526020600482015260146024820152733a3930b739b332b9233937b6903330b4b632b21760611b604482015290519081900360640190fd5b8686600081811061074f57fe5b6002546040805163095ea7b360e01b81526001600160a01b039283166004820152602481018f90529051602093840295909501359091169363095ea7b39350604480830193928290030181600087803b1580156107ab57600080fd5b505af11580156107bf573d6000803e3d6000fd5b505050506040513d60208110156107d557600080fd5b505161081b576040805162461bcd60e51b815260206004820152601060248201526f30b8383937bb30b6103330b4b632b21760811b604482015290519081900360640190fd5b6002546040516338ed173960e01b8152600481018b8152602482018b90526001600160a01b0388811660648401526084830188905260a06044840190815260a484018b90529316926338ed1739928d928d928d928d928d928d9260c401866020870280828437600081840152601f19601f820116905080830192505050975050505050505050600060405180830381600087803b1580156108bb57600080fd5b505af11580156108cf573d6000803e3d6000fd5b505050506040513d6000823e601f3d908101601f1916820160405260208110156108f857600080fd5b8101908080516040519392919084600160201b82111561091757600080fd5b90830190602082018581111561092c57600080fd5b82518660208202830111600160201b8211171561094857600080fd5b82525081516020918201928201910280838360005b8381101561097557818101518382015260200161095d565b5050505090500160405250505092506109aa8787600081811061099457fe5b905060200201356001600160a01b031633612203565b506008546001600160a01b03166340c10f19336109e96109e25a6005546109dc906109d590896120f8565b89906120f8565b906122a2565b3a906122ff565b6040518363ffffffff1660e01b815260040180836001600160a01b0316815260200182815260200192505050600060405180830381600087803b158015610a2f57600080fd5b505af1158015610a43573d6000803e3d6000fd5b505050505a600b555090979650505050505050565b60605a600a55600454600090610a6f905a906120f8565b90506000610a83878760008181106104bf57fe5b9050670de0b6b3a7640000821115610adb576040805162461bcd60e51b81526020600482015260166024820152751026b0bc103932b33ab7321034b990189022ba3432b960511b604482015290519081900360640190fd5b610ae3611aea565b600854604080516370a0823160e01b815233600482015290516001600160a01b03909216916370a0823191602480820192602092909190829003018186803b158015610b2e57600080fd5b505afa158015610b42573d6000803e3d6000fd5b505050506040513d6020811015610b5857600080fd5b50511015610ba1576040805162461bcd60e51b81526020600482015260116024820152702637bb902324aa24102130b630b731b29760791b604482015290519081900360640190fd5b600080546001600160a01b0316908890889081610bba57fe5b905060200201356001600160a01b03166001600160a01b03161415610c14576040805162461bcd60e51b815260206004820152601c6024820152600080516020612451833981519152604482015290519081900360640190fd5b600254604080516307c0329d60e21b8152600481018c815260248201928352604482018a90526060936001600160a01b031692631f00ca74928e928d928d92606401846020850280828437600081840152601f19601f82011690508083019250505094505050505060006040518083038186803b158015610c9457600080fd5b505afa158015610ca8573d6000803e3d6000fd5b505050506040513d6000823e601f3d908101601f191682016040526020811015610cd157600080fd5b8101908080516040519392919084600160201b821115610cf057600080fd5b908301906020820185811115610d0557600080fd5b82518660208202830111600160201b82111715610d2157600080fd5b82525081516020918201928201910280838360005b83811015610d4e578181015183820152602001610d36565b50505050905001604052505050905087876000818110610d6a57fe5b905060200201356001600160a01b03166001600160a01b03166323b872dd333084600081518110610d9757fe5b60200260200101516040518463ffffffff1660e01b815260040180846001600160a01b03168152602001836001600160a01b031681526020018281526020019350505050602060405180830381600087803b158015610df557600080fd5b505af1158015610e09573d6000803e3d6000fd5b505050506040513d6020811015610e1f57600080fd5b5051610e69576040805162461bcd60e51b81526020600482015260146024820152733a3930b739b332b9233937b6903330b4b632b21760611b604482015290519081900360640190fd5b87876000818110610e7657fe5b905060200201356001600160a01b03166001600160a01b031663095ea7b3600260009054906101000a90046001600160a01b031683600081518110610eb757fe5b60200260200101516040518363ffffffff1660e01b815260040180836001600160a01b0316815260200182815260200192505050602060405180830381600087803b158015610f0557600080fd5b505af1158015610f19573d6000803e3d6000fd5b505050506040513d6020811015610f2f57600080fd5b5051610f75576040805162461bcd60e51b815260206004820152601060248201526f30b8383937bb30b6103330b4b632b21760811b604482015290519081900360640190fd5b600254604051632512eca560e11b8152600481018c8152602482018c90526001600160a01b0389811660648401526084830189905260a06044840190815260a484018c9052931692634a25d94a928e928e928e928e928e928e9260c401866020870280828437600081840152601f19601f820116905080830192505050975050505050505050600060405180830381600087803b15801561101557600080fd5b505af1158015611029573d6000803e3d6000fd5b505050506040513d6000823e601f3d908101601f19168201604052602081101561105257600080fd5b8101908080516040519392919084600160201b82111561107157600080fd5b90830190602082018581111561108657600080fd5b82518660208202830111600160201b821117156110a257600080fd5b82525081516020918201928201910280838360005b838110156110cf5781810151838201526020016110b7565b5050505090500160405250505093506110ee8888600081811061099457fe5b506008546001600160a01b03166340c10f19336111206109e25a6005546109dc90611119908a6120f8565b8a906120f8565b6040518363ffffffff1660e01b815260040180836001600160a01b0316815260200182815260200192505050600060405180830381600087803b15801561116657600080fd5b505af115801561117a573d6000803e3d6000fd5b505050505a600b55509198975050505050505050565b600b5481565b60076020526000908152604090205481565b600a5481565b6001546001600160a01b031681565b60605a600a556004546000906111d4905a906120f8565b905060006111e8878760008181106104bf57fe5b9050670de0b6b3a7640000821115611240576040805162461bcd60e51b81526020600482015260166024820152751026b0bc103932b33ab7321034b990189022ba3432b960511b604482015290519081900360640190fd5b611248611aea565b600854604080516370a0823160e01b815233600482015290516001600160a01b03909216916370a0823191602480820192602092909190829003018186803b15801561129357600080fd5b505afa1580156112a7573d6000803e3d6000fd5b505050506040513d60208110156112bd57600080fd5b50511015611306576040805162461bcd60e51b81526020600482015260116024820152702637bb902324aa24102130b630b731b29760791b604482015290519081900360640190fd5b600080546001600160a01b031690889088908161131f57fe5b905060200201356001600160a01b03166001600160a01b03161415611379576040805162461bcd60e51b815260206004820152601c6024820152600080516020612451833981519152604482015290519081900360640190fd5b600254604051637ff36ab560e01b8152600481018a81526001600160a01b03888116604484015260648301889052608060248401908152608484018b9052931692637ff36ab59234928d928d928d928d928d9260a401866020870280828437600081840152601f19601f82011690508083019250505096505050505050506000604051808303818588803b15801561141057600080fd5b505af1158015611424573d6000803e3d6000fd5b50505050506040513d6000823e601f3d908101601f19168201604052602081101561144e57600080fd5b8101908080516040519392919084600160201b82111561146d57600080fd5b90830190602082018581111561148257600080fd5b82518660208202830111600160201b8211171561149e57600080fd5b82525081516020918201928201910280838360005b838110156114cb5781810151838201526020016114b3565b5050505090500160405250505092506114ea8787600081811061099457fe5b506008546001600160a01b03166340c10f19336115156109e25a6005546109dc906109d590896120f8565b6040518363ffffffff1660e01b815260040180836001600160a01b0316815260200182815260200192505050600060405180830381600087803b15801561155b57600080fd5b505af115801561156f573d6000803e3d6000fd5b505050505a600b5550909695505050505050565b60605a600a5560045460009061159a905a906120f8565b905060006115ae878760008181106104bf57fe5b90506115b8611aea565b600854604080516370a0823160e01b815233600482015290516001600160a01b03909216916370a0823191602480820192602092909190829003018186803b15801561160357600080fd5b505afa158015611617573d6000803e3d6000fd5b505050506040513d602081101561162d57600080fd5b50511015611676576040805162461bcd60e51b81526020600482015260116024820152702637bb902324aa24102130b630b731b29760791b604482015290519081900360640190fd5b600080546001600160a01b031690889088908161168f57fe5b905060200201356001600160a01b03166001600160a01b031614156116e9576040805162461bcd60e51b815260206004820152601c6024820152600080516020612451833981519152604482015290519081900360640190fd5b600254604080516307c0329d60e21b8152600481018c815260248201928352604482018a90526060936001600160a01b031692631f00ca74928e928d928d92606401846020850280828437600081840152601f19601f82011690508083019250505094505050505060006040518083038186803b15801561176957600080fd5b505afa15801561177d573d6000803e3d6000fd5b505050506040513d6000823e601f3d908101601f1916820160405260208110156117a657600080fd5b8101908080516040519392919084600160201b8211156117c557600080fd5b9083019060208201858111156117da57600080fd5b82518660208202830111600160201b821117156117f657600080fd5b82525081516020918201928201910280838360005b8381101561182357818101518382015260200161180b565b5050505090500160405250505090508787600081811061183f57fe5b905060200201356001600160a01b03166001600160a01b03166323b872dd33308460008151811061186c57fe5b60200260200101516040518463ffffffff1660e01b815260040180846001600160a01b03168152602001836001600160a01b031681526020018281526020019350505050602060405180830381600087803b1580156118ca57600080fd5b505af11580156118de573d6000803e3d6000fd5b505050506040513d60208110156118f457600080fd5b505161193e576040805162461bcd60e51b81526020600482015260146024820152733a3930b739b332b9233937b6903330b4b632b21760611b604482015290519081900360640190fd5b8787600081811061194b57fe5b905060200201356001600160a01b03166001600160a01b031663095ea7b3600260009054906101000a90046001600160a01b03168360008151811061198c57fe5b60200260200101516040518363ffffffff1660e01b815260040180836001600160a01b0316815260200182815260200192505050602060405180830381600087803b1580156119da57600080fd5b505af11580156119ee573d6000803e3d6000fd5b505050506040513d6020811015611a0457600080fd5b5051611a4a576040805162461bcd60e51b815260206004820152601060248201526f30b8383937bb30b6103330b4b632b21760811b604482015290519081900360640190fd5b600254604051634401edf760e11b8152600481018c8152602482018c90526001600160a01b0389811660648401526084830189905260a06044840190815260a484018c9052931692638803dbee928e928e928e928e928e928e9260c401866020870280828437600081840152601f19601f820116905080830192505050975050505050505050600060405180830381600087803b15801561101557600080fd5b60008062989680600860009054906101000a90046001600160a01b03166001600160a01b03166318160ddd6040518163ffffffff1660e01b815260040160206040518083038186803b158015611b3f57600080fd5b505afa158015611b53573d6000803e3d6000fd5b505050506040513d6020811015611b6957600080fd5b505181611b7257fe5b049050670de0b6b3a76400008111611b8a5780611b94565b670de0b6b3a76400005b91505090565b60605a600a55600454600090611bb1905a906120f8565b90506000611bc5878760008181106104bf57fe5b9050670de0b6b3a7640000821115611c1d576040805162461bcd60e51b81526020600482015260166024820152751026b0bc103932b33ab7321034b990189022ba3432b960511b604482015290519081900360640190fd5b611c25611aea565b600854604080516370a0823160e01b815233600482015290516001600160a01b03909216916370a0823191602480820192602092909190829003018186803b158015611c7057600080fd5b505afa158015611c84573d6000803e3d6000fd5b505050506040513d6020811015611c9a57600080fd5b50511015611ce3576040805162461bcd60e51b81526020600482015260116024820152702637bb902324aa24102130b630b731b29760791b604482015290519081900360640190fd5b600080546001600160a01b0316908890889081611cfc57fe5b905060200201356001600160a01b03166001600160a01b03161415611d56576040805162461bcd60e51b815260206004820152601c6024820152600080516020612451833981519152604482015290519081900360640190fd5b60025460405163fb3bdb4160e01b8152600481018a81526001600160a01b03888116604484015260648301889052608060248401908152608484018b905293169263fb3bdb419234928d928d928d928d928d9260a401866020870280828437600081840152601f19601f82011690508083019250505096505050505050506000604051808303818588803b158015611ded57600080fd5b505af1158015611e01573d6000803e3d6000fd5b50505050506040513d6000823e601f3d908101601f191682016040526020811015611e2b57600080fd5b8101908080516040519392919084600160201b821115611e4a57600080fd5b908301906020820185811115611e5f57600080fd5b82518660208202830111600160201b82111715611e7b57600080fd5b82525081516020918201928201910280838360005b83811015611ea8578181015183820152602001611e90565b5050505090500160405250505092506060600260009054906101000a90046001600160a01b03166001600160a01b0316631f00ca748a8a8a6040518463ffffffff1660e01b815260040180848152602001806020018281038252848482818152602001925060200280828437600081840152601f19601f82011690508083019250505094505050505060006040518083038186803b158015611f4957600080fd5b505afa158015611f5d573d6000803e3d6000fd5b505050506040513d6000823e601f3d908101601f191682016040526020811015611f8657600080fd5b8101908080516040519392919084600160201b821115611fa557600080fd5b908301906020820185811115611fba57600080fd5b82518660208202830111600160201b82111715611fd657600080fd5b82525081516020918201928201910280838360005b83811015612003578181015183820152602001611feb565b5050505090500160405250505090508060008151811061201f57fe5b602002602001015134111561204e5761204e338260008151811061203f57fe5b60200260200101513403612358565b61205e8888600081811061099457fe5b506008546001600160a01b03166340c10f19336120896109e25a6005546109dc90611119908a6120f8565b6040518363ffffffff1660e01b815260040180836001600160a01b0316815260200182815260200192505050600060405180830381600087803b1580156120cf57600080fd5b505af11580156120e3573d6000803e3d6000fd5b505050505a600b555091979650505050505050565b600082820183811015612152576040805162461bcd60e51b815260206004820152601b60248201527f536166654d6174683a206164646974696f6e206f766572666c6f770000000000604482015290519081900360640190fd5b90505b92915050565b6001600160a01b038082166000818152600760209081526040808320548151636eb1769f60e11b815260048101959095523060248601529051929490939087169263dd62ed3e92604480840193919291829003018186803b1580156121bf57600080fd5b505afa1580156121d3573d6000803e3d6000fd5b505050506040513d60208110156121e957600080fd5b505111156121fa5750600654612155565b50600092915050565b60408051636eb1769f60e11b81526001600160a01b038381166004830152306024830152915160009285169163dd62ed3e916044808301926020929190829003018186803b15801561225457600080fd5b505afa158015612268573d6000803e3d6000fd5b505050506040513d602081101561227e57600080fd5b50516001600160a01b03909216600090815260076020526040902091909155919050565b6000828211156122f9576040805162461bcd60e51b815260206004820152601e60248201527f536166654d6174683a207375627472616374696f6e206f766572666c6f770000604482015290519081900360640190fd5b50900390565b60008261230e57506000612155565b8282028284828161231b57fe5b04146121525760405162461bcd60e51b81526004018080602001828103825260218152602001806124716021913960400191505060405180910390fd5b604080516000808252602082019092526001600160a01b0384169083906040518082805190602001908083835b602083106123a45780518252601f199092019160209182019101612385565b6001836020036101000a03801982511681845116808217855250505050505090500191505060006040518083038185875af1925050503d8060008114612406576040519150601f19603f3d011682016040523d82523d6000602084013e61240b565b606091505b505090508061244b5760405162461bcd60e51b81526004018080602001828103825260238152602001806124926023913960400191505060405180910390fd5b50505056fe45786974205472616e73616374696f6e732050726f6869626974656400000000536166654d6174683a206d756c7469706c69636174696f6e206f766572666c6f775472616e7366657248656c7065723a204554485f5452414e534645525f4641494c4544a2646970667358221220f3f072744f748c3adba19efa0bc113188c84daff47a15d230b0f01fab129a78564736f6c634300060c0033",
    "sourcePath": "/sites/contracts/tollfree/src/UniswapV2Proxy.sol",
    "compiler": {
        "name": "solc",
        "version": "0.6.12+commit.27d51765"
    },
    "functionHashes": {
        "MINIMUM_TOLL()": "eedddb77",
        "TOLL_ADDRESS()": "1ae7f709",
        "UNISWAP_ROUTER_ADDRESS()": "79b36943",
        "approvals(address)": "5d0341ba",
        "gassend()": "537323ec",
        "gasstart()": "6770e264",
        "swapETHForExactTokens(uint256,address[],address,uint256)": "fb3bdb41",
        "swapExactETHForTokens(uint256,address[],address,uint256)": "7ff36ab5",
        "swapExactTokensForTokens(uint256,uint256,address[],address,uint256)": "38ed1739",
        "swapTokensForExactETH(uint256,uint256,address[],address,uint256)": "4a25d94a",
        "swapTokensForExactTokens(uint256,uint256,address[],address,uint256)": "8803dbee"
    },
    "gasEstimates": {
        "creation": {
            "codeDepositCost": "1890000",
            "executionCost": "infinite",
            "totalCost": "infinite"
        },
        "external": {
            "MINIMUM_TOLL()": "infinite",
            "TOLL_ADDRESS()": "1038",
            "UNISWAP_ROUTER_ADDRESS()": "1059",
            "approvals(address)": "1213",
            "gassend()": "1065",
            "gasstart()": "998",
            "swapETHForExactTokens(uint256,address[],address,uint256)": "infinite",
            "swapExactETHForTokens(uint256,address[],address,uint256)": "infinite",
            "swapExactTokensForTokens(uint256,uint256,address[],address,uint256)": "infinite",
            "swapTokensForExactETH(uint256,uint256,address[],address,uint256)": "infinite",
            "swapTokensForExactTokens(uint256,uint256,address[],address,uint256)": "infinite"
        },
        "internal": {
            "getApprovalFees(address,address)": "infinite",
            "setApproval(address,address)": "infinite"
        }
    }
}